{
  "address": "0x7a173A15d548b48C0283D450Ec3783bc5706F0e6",
  "abi": [
    {
      "inputs": [],
      "stateMutability": "nonpayable",
      "type": "constructor"
    },
    {
      "inputs": [
        {
          "internalType": "uint256",
          "name": "_id",
          "type": "uint256"
        }
      ],
      "name": "devolverEquipo",
      "outputs": [],
      "stateMutability": "nonpayable",
      "type": "function"
    },
    {
      "inputs": [
        {
          "internalType": "string",
          "name": "",
          "type": "string"
        }
      ],
      "name": "inventario",
      "outputs": [
        {
          "internalType": "string",
          "name": "nombre",
          "type": "string"
        },
        {
          "internalType": "uint256",
          "name": "cantidadTotal",
          "type": "uint256"
        },
        {
          "internalType": "uint256",
          "name": "cantidadPrestada",
          "type": "uint256"
        },
        {
          "internalType": "bool",
          "name": "existe",
          "type": "bool"
        }
      ],
      "stateMutability": "view",
      "type": "function"
    },
    {
      "inputs": [
        {
          "internalType": "uint256",
          "name": "",
          "type": "uint256"
        }
      ],
      "name": "nombresEquipos",
      "outputs": [
        {
          "internalType": "string",
          "name": "",
          "type": "string"
        }
      ],
      "stateMutability": "view",
      "type": "function"
    },
    {
      "inputs": [],
      "name": "obtenerInventarioCompleto",
      "outputs": [
        {
          "components": [
            {
              "internalType": "string",
              "name": "nombre",
              "type": "string"
            },
            {
              "internalType": "uint256",
              "name": "cantidadTotal",
              "type": "uint256"
            },
            {
              "internalType": "uint256",
              "name": "cantidadPrestada",
              "type": "uint256"
            },
            {
              "internalType": "bool",
              "name": "existe",
              "type": "bool"
            }
          ],
          "internalType": "struct SistemaPrestamos.Equipo[]",
          "name": "",
          "type": "tuple[]"
        }
      ],
      "stateMutability": "view",
      "type": "function"
    },
    {
      "inputs": [],
      "name": "obtenerTodosLosPrestamos",
      "outputs": [
        {
          "components": [
            {
              "internalType": "uint256",
              "name": "id",
              "type": "uint256"
            },
            {
              "internalType": "address",
              "name": "solicitante",
              "type": "address"
            },
            {
              "internalType": "string",
              "name": "nombre",
              "type": "string"
            },
            {
              "internalType": "string",
              "name": "apellido",
              "type": "string"
            },
            {
              "internalType": "string",
              "name": "cedula",
              "type": "string"
            },
            {
              "internalType": "string",
              "name": "telefono",
              "type": "string"
            },
            {
              "internalType": "string",
              "name": "trayecto",
              "type": "string"
            },
            {
              "internalType": "string",
              "name": "tipoEquipo",
              "type": "string"
            },
            {
              "internalType": "uint256",
              "name": "fechaAgendada",
              "type": "uint256"
            },
            {
              "internalType": "bool",
              "name": "activo",
              "type": "bool"
            }
          ],
          "internalType": "struct SistemaPrestamos.Prestamo[]",
          "name": "",
          "type": "tuple[]"
        }
      ],
      "stateMutability": "view",
      "type": "function"
    },
    {
      "inputs": [
        {
          "internalType": "address",
          "name": "",
          "type": "address"
        }
      ],
      "name": "prestamoActualPorUsuario",
      "outputs": [
        {
          "internalType": "uint256",
          "name": "",
          "type": "uint256"
        }
      ],
      "stateMutability": "view",
      "type": "function"
    },
    {
      "inputs": [],
      "name": "proximoId",
      "outputs": [
        {
          "internalType": "uint256",
          "name": "",
          "type": "uint256"
        }
      ],
      "stateMutability": "view",
      "type": "function"
    },
    {
      "inputs": [
        {
          "internalType": "string",
          "name": "_nombre",
          "type": "string"
        },
        {
          "internalType": "string",
          "name": "_apellido",
          "type": "string"
        },
        {
          "internalType": "string",
          "name": "_cedula",
          "type": "string"
        },
        {
          "internalType": "string",
          "name": "_telefono",
          "type": "string"
        },
        {
          "internalType": "string",
          "name": "_trayecto",
          "type": "string"
        },
        {
          "internalType": "string",
          "name": "_tipoEquipo",
          "type": "string"
        },
        {
          "internalType": "uint256",
          "name": "_fechaAgendada",
          "type": "uint256"
        }
      ],
      "name": "solicitarPrestamo",
      "outputs": [],
      "stateMutability": "nonpayable",
      "type": "function"
    },
    {
      "inputs": [
        {
          "internalType": "uint256",
          "name": "",
          "type": "uint256"
        }
      ],
      "name": "todosLosPrestamos",
      "outputs": [
        {
          "internalType": "uint256",
          "name": "id",
          "type": "uint256"
        },
        {
          "internalType": "address",
          "name": "solicitante",
          "type": "address"
        },
        {
          "internalType": "string",
          "name": "nombre",
          "type": "string"
        },
        {
          "internalType": "string",
          "name": "apellido",
          "type": "string"
        },
        {
          "internalType": "string",
          "name": "cedula",
          "type": "string"
        },
        {
          "internalType": "string",
          "name": "telefono",
          "type": "string"
        },
        {
          "internalType": "string",
          "name": "trayecto",
          "type": "string"
        },
        {
          "internalType": "string",
          "name": "tipoEquipo",
          "type": "string"
        },
        {
          "internalType": "uint256",
          "name": "fechaAgendada",
          "type": "uint256"
        },
        {
          "internalType": "bool",
          "name": "activo",
          "type": "bool"
        }
      ],
      "stateMutability": "view",
      "type": "function"
    }
  ],
  "transactionHash": "0xc70bca242724977b5ab8411aff1a62b186ca25925ad75d5f5b5a67adfde714ba",
  "args": [],
  "numDeployments": 1,
  "solcInputHash": "ecb97479846d650a738f4a502c59d99e",
  "bytecode": "0x608060405234801561001057600080fd5b5060408051808201909152600a815269566964656f204265616d60b01b602082015261003d90600261012e565b60408051808201909152601b81527f4c61626f7261746f72696f2064652050726f6772616d6163696f6e0000000000602082015261007c90600161012e565b60408051808201909152601581527f4c61626f7261746f72696f20646520446973656e6f000000000000000000000060208201526100bb90600161012e565b60408051808201909152601881527f4c61626f7261746f72696f20646520446973656e6f204949000000000000000060208201526100fa90600161012e565b60408051808201909152600d81526c41706f796f20446f63656e746560981b602082015261012990600161012e565b61037c565b6040518060800160405280838152602001828152602001600081526020016001151581525060008360405161016391906101f1565b9081526040519081900360200190208151819061018090826102be565b506020820151600182810191909155604083015160028301556060909201516003909101805460ff1916911515919091179055805480820182556000919091527fb10e2d527612073b26eecdfd717e6a320cf44b4afac2b0732d9fcbe2b7fa0cf6016101ec83826102be565b505050565b6000825160005b8181101561021257602081860181015185830152016101f8565b506000920191825250919050565b634e487b7160e01b600052604160045260246000fd5b600181811c9082168061024a57607f821691505b60208210810361026a57634e487b7160e01b600052602260045260246000fd5b50919050565b601f8211156101ec57806000526020600020601f840160051c810160208510156102975750805b601f840160051c820191505b818110156102b757600081556001016102a3565b5050505050565b81516001600160401b038111156102d7576102d7610220565b6102eb816102e58454610236565b84610270565b6020601f82116001811461031f57600083156103075750848201515b600019600385901b1c1916600184901b1784556102b7565b600084815260208120601f198516915b8281101561034f578785015182556020948501946001909201910161032f565b508482101561036d5786840151600019600387901b60f8161c191681555b50505050600190811b01905550565b61192b8061038b6000396000f3fe608060405234801561001057600080fd5b50600436106100935760003560e01c80639d018feb116100665780639d018feb14610117578063b60b55bd1461012c578063c6b6c2211461014c578063e8389def1461015f578063ebe148f61461017657600080fd5b806328910a1414610098578063527152ff146100c4578063791e73f1146100ed57806393ac370314610102575b600080fd5b6100ab6100a6366004611217565b610196565b6040516100bb94939291906112a4565b60405180910390f35b6100d76100d23660046112d5565b610256565b6040516100bb9a999897969594939291906112ee565b6100f56105e2565b6040516100bb919061139c565b61010a610ab3565b6040516100bb91906114da565b61012a61012536600461155f565b610c64565b005b61013f61013a3660046112d5565b610fdc565b6040516100bb9190611683565b61012a61015a3660046112d5565b611088565b61016860055481565b6040519081526020016100bb565b61016861018436600461169d565b60036020526000908152604090205481565b80516020818301810180516000825292820191909301209152805481906101bc906116c6565b80601f01602080910402602001604051908101604052809291908181526020018280546101e8906116c6565b80156102355780601f1061020a57610100808354040283529160200191610235565b820191906000526020600020905b81548152906001019060200180831161021857829003601f168201915b50505050600183015460028401546003909401549293909290915060ff1684565b600260208190526000918252604090912080546001820154928201805491936001600160a01b03169291610289906116c6565b80601f01602080910402602001604051908101604052809291908181526020018280546102b5906116c6565b80156103025780601f106102d757610100808354040283529160200191610302565b820191906000526020600020905b8154815290600101906020018083116102e557829003601f168201915b505050505090806003018054610317906116c6565b80601f0160208091040260200160405190810160405280929190818152602001828054610343906116c6565b80156103905780601f1061036557610100808354040283529160200191610390565b820191906000526020600020905b81548152906001019060200180831161037357829003601f168201915b5050505050908060040180546103a5906116c6565b80601f01602080910402602001604051908101604052809291908181526020018280546103d1906116c6565b801561041e5780601f106103f35761010080835404028352916020019161041e565b820191906000526020600020905b81548152906001019060200180831161040157829003601f168201915b505050505090806005018054610433906116c6565b80601f016020809104026020016040519081016040528092919081815260200182805461045f906116c6565b80156104ac5780601f10610481576101008083540402835291602001916104ac565b820191906000526020600020905b81548152906001019060200180831161048f57829003601f168201915b5050505050908060060180546104c1906116c6565b80601f01602080910402602001604051908101604052809291908181526020018280546104ed906116c6565b801561053a5780601f1061050f5761010080835404028352916020019161053a565b820191906000526020600020905b81548152906001019060200180831161051d57829003601f168201915b50505050509080600701805461054f906116c6565b80601f016020809104026020016040519081016040528092919081815260200182805461057b906116c6565b80156105c85780601f1061059d576101008083540402835291602001916105c8565b820191906000526020600020905b8154815290600101906020018083116105ab57829003601f168201915b50505050600883015460099093015491929160ff1690508a565b60045460609060009067ffffffffffffffff81111561060357610603611172565b60405190808252806020026020018201604052801561069557816020015b6106826040518061014001604052806000815260200160006001600160a01b03168152602001606081526020016060815260200160608152602001606081526020016060815260200160608152602001600081526020016000151581525090565b8152602001906001900390816106215790505b50905060005b600454811015610aad5760026000600483815481106106bc576106bc6116fa565b6000918252602080832090910154835282810193909352604091820190208151610140810183528154815260018201546001600160a01b0316938101939093526002810180549192840191610710906116c6565b80601f016020809104026020016040519081016040528092919081815260200182805461073c906116c6565b80156107895780601f1061075e57610100808354040283529160200191610789565b820191906000526020600020905b81548152906001019060200180831161076c57829003601f168201915b505050505081526020016003820180546107a2906116c6565b80601f01602080910402602001604051908101604052809291908181526020018280546107ce906116c6565b801561081b5780601f106107f05761010080835404028352916020019161081b565b820191906000526020600020905b8154815290600101906020018083116107fe57829003601f168201915b50505050508152602001600482018054610834906116c6565b80601f0160208091040260200160405190810160405280929190818152602001828054610860906116c6565b80156108ad5780601f10610882576101008083540402835291602001916108ad565b820191906000526020600020905b81548152906001019060200180831161089057829003601f168201915b505050505081526020016005820180546108c6906116c6565b80601f01602080910402602001604051908101604052809291908181526020018280546108f2906116c6565b801561093f5780601f106109145761010080835404028352916020019161093f565b820191906000526020600020905b81548152906001019060200180831161092257829003601f168201915b50505050508152602001600682018054610958906116c6565b80601f0160208091040260200160405190810160405280929190818152602001828054610984906116c6565b80156109d15780601f106109a6576101008083540402835291602001916109d1565b820191906000526020600020905b8154815290600101906020018083116109b457829003601f168201915b505050505081526020016007820180546109ea906116c6565b80601f0160208091040260200160405190810160405280929190818152602001828054610a16906116c6565b8015610a635780601f10610a3857610100808354040283529160200191610a63565b820191906000526020600020905b815481529060010190602001808311610a4657829003601f168201915b50505091835250506008820154602082015260099091015460ff1615156040909101528251839083908110610a9a57610a9a6116fa565b602090810291909101015260010161069b565b50919050565b60015460609060009067ffffffffffffffff811115610ad457610ad4611172565b604051908082528060200260200182016040528015610b3257816020015b610b1f60405180608001604052806060815260200160008152602001600081526020016000151581525090565b815260200190600190039081610af25790505b50905060005b600154811015610aad57600060018281548110610b5757610b576116fa565b90600052602060002001604051610b6e9190611710565b9081526020016040518091039020604051806080016040529081600082018054610b97906116c6565b80601f0160208091040260200160405190810160405280929190818152602001828054610bc3906116c6565b8015610c105780601f10610be557610100808354040283529160200191610c10565b820191906000526020600020905b815481529060010190602001808311610bf357829003601f168201915b5050509183525050600182015460208201526002820154604082015260039091015460ff1615156060909101528251839083908110610c5157610c516116fa565b6020908102919091010152600101610b38565b600082604051610c749190611785565b9081526040519081900360200190206003015460ff16610ce65760405162461bcd60e51b815260206004820152602260248201527f456c2065717569706f206e6f2065786973746520656e20696e76656e74617269604482015261379760f11b60648201526084015b60405180910390fd5b600082604051610cf69190611785565b908152602001604051809103902060010154600083604051610d189190611785565b90815260200160405180910390206002015410610d875760405162461bcd60e51b815260206004820152602760248201527f4e6f2068617920646973706f6e6962696c69646164207061726120657374652060448201526632b8bab4b8379760c91b6064820152608401610cdd565b336000908152600360205260409020548015610dff5760008181526002602052604090206009015460ff1615610dff5760405162461bcd60e51b815260206004820152601d60248201527f5961207469656e657320756e207072657374616d6f2061637469766f2e0000006044820152606401610cdd565b60058054906000610e0f836117b7565b91905055506040518061014001604052806005548152602001336001600160a01b03168152602001898152602001888152602001878152602001868152602001858152602001848152602001838152602001600115158152506002600060055481526020019081526020016000206000820151816000015560208201518160010160006101000a8154816001600160a01b0302191690836001600160a01b031602179055506040820151816002019081610ec9919061181f565b5060608201516003820190610ede908261181f565b5060808201516004820190610ef3908261181f565b5060a08201516005820190610f08908261181f565b5060c08201516006820190610f1d908261181f565b5060e08201516007820190610f32908261181f565b506101008201516008820155610120909101516009909101805460ff1916911515919091179055604051600090610f6a908590611785565b9081526040519081900360200190206002018054906000610f8a836117b7565b909155505060055460048054600181019091557f8a35acfbc15ff81a39ae7d344fd709f28e8600b4aa8c65c6b64bfe7fe36bd19b01819055336000908152600360205260409020555050505050505050565b60018181548110610fec57600080fd5b906000526020600020016000915090508054611007906116c6565b80601f0160208091040260200160405190810160405280929190818152602001828054611033906116c6565b80156110805780601f1061105557610100808354040283529160200191611080565b820191906000526020600020905b81548152906001019060200180831161106357829003601f168201915b505050505081565b6000818152600260205260409020600981015460ff166110d95760405162461bcd60e51b815260206004820152600c60248201526b2cb0903232bb3ab2b63a379760a11b6044820152606401610cdd565b60018101546001600160a01b031633146111295760405162461bcd60e51b815260206004820152601160248201527027379032b932b99032b610323ab2b7379760791b6044820152606401610cdd565b60098101805460ff19169055604051600090611149906007840190611710565b9081526040519081900360200190206002018054906000611169836118de565b91905055505050565b634e487b7160e01b600052604160045260246000fd5b600082601f83011261119957600080fd5b813567ffffffffffffffff8111156111b3576111b3611172565b604051601f8201601f19908116603f0116810167ffffffffffffffff811182821017156111e2576111e2611172565b6040528181528382016020018510156111fa57600080fd5b816020850160208301376000918101602001919091529392505050565b60006020828403121561122957600080fd5b813567ffffffffffffffff81111561124057600080fd5b61124c84828501611188565b949350505050565b60005b8381101561126f578181015183820152602001611257565b50506000910152565b60008151808452611290816020860160208601611254565b601f01601f19169290920160200192915050565b6080815260006112b76080830187611278565b60208301959095525060408101929092521515606090910152919050565b6000602082840312156112e757600080fd5b5035919050565b8a81526001600160a01b038a166020820152610140604082018190526000906113199083018b611278565b828103606084015261132b818b611278565b9050828103608084015261133f818a611278565b905082810360a08401526113538189611278565b905082810360c08401526113678188611278565b905082810360e084015261137b8187611278565b61010084019590955250509015156101209091015298975050505050505050565b6000602082016020835280845180835260408501915060408160051b86010192506020860160005b828110156114ce57603f1987860301845281518051865260208101516113f560208801826001600160a01b03169052565b5060408101516101406040880152611411610140880182611278565b90506060820151878203606089015261142a8282611278565b915050608082015187820360808901526114448282611278565b91505060a082015187820360a089015261145e8282611278565b91505060c082015187820360c08901526114788282611278565b91505060e082015187820360e08901526114928282611278565b91505061010082015161010088015261012082015191506114b861012088018315159052565b95505060209384019391909101906001016113c4565b50929695505050505050565b6000602082016020835280845180835260408501915060408160051b86010192506020860160005b828110156114ce57603f1987860301845281518051608087526115286080880182611278565b60208381015189820152604080850151908a0152606093840151151593909801929092525094938401939190910190600101611502565b600080600080600080600060e0888a03121561157a57600080fd5b873567ffffffffffffffff81111561159157600080fd5b61159d8a828b01611188565b975050602088013567ffffffffffffffff8111156115ba57600080fd5b6115c68a828b01611188565b965050604088013567ffffffffffffffff8111156115e357600080fd5b6115ef8a828b01611188565b955050606088013567ffffffffffffffff81111561160c57600080fd5b6116188a828b01611188565b945050608088013567ffffffffffffffff81111561163557600080fd5b6116418a828b01611188565b93505060a088013567ffffffffffffffff81111561165e57600080fd5b61166a8a828b01611188565b979a969950949793969295929450505060c09091013590565b6020815260006116966020830184611278565b9392505050565b6000602082840312156116af57600080fd5b81356001600160a01b038116811461169657600080fd5b600181811c908216806116da57607f821691505b602082108103610aad57634e487b7160e01b600052602260045260246000fd5b634e487b7160e01b600052603260045260246000fd5b600080835461171e816116c6565b600182168015611735576001811461174a5761177a565b60ff198316865281151582028601935061177a565b86600052602060002060005b8381101561177257815488820152600190910190602001611756565b505081860193505b509195945050505050565b60008251611797818460208701611254565b9190910192915050565b634e487b7160e01b600052601160045260246000fd5b6000600182016117c9576117c96117a1565b5060010190565b601f82111561181a57806000526020600020601f840160051c810160208510156117f75750805b601f840160051c820191505b818110156118175760008155600101611803565b50505b505050565b815167ffffffffffffffff81111561183957611839611172565b61184d8161184784546116c6565b846117d0565b6020601f82116001811461188157600083156118695750848201515b600019600385901b1c1916600184901b178455611817565b600084815260208120601f198516915b828110156118b15787850151825560209485019460019092019101611891565b50848210156118cf5786840151600019600387901b60f8161c191681555b50505050600190811b01905550565b6000816118ed576118ed6117a1565b50600019019056fea2646970667358221220e55fa7062b50504ef7cdecc5202dd7498d0642efb06949e77460ea5421b7aa8f64736f6c634300081e0033",
  "devdoc": {
    "kind": "dev",
    "methods": {},
    "version": 1
  },
  "userdoc": {
    "kind": "user",
    "methods": {},
    "version": 1
  },
  "storageLayout": {
    "storage": [
      {
        "astId": 36,
        "contract": "contracts/SistemaPrestamos.sol:SistemaPrestamos",
        "label": "inventario",
        "offset": 0,
        "slot": "0",
        "type": "t_mapping(t_string_memory_ptr,t_struct(Equipo)10_storage)"
      },
      {
        "astId": 39,
        "contract": "contracts/SistemaPrestamos.sol:SistemaPrestamos",
        "label": "nombresEquipos",
        "offset": 0,
        "slot": "1",
        "type": "t_array(t_string_storage)dyn_storage"
      },
      {
        "astId": 44,
        "contract": "contracts/SistemaPrestamos.sol:SistemaPrestamos",
        "label": "todosLosPrestamos",
        "offset": 0,
        "slot": "2",
        "type": "t_mapping(t_uint256,t_struct(Prestamo)31_storage)"
      },
      {
        "astId": 48,
        "contract": "contracts/SistemaPrestamos.sol:SistemaPrestamos",
        "label": "prestamoActualPorUsuario",
        "offset": 0,
        "slot": "3",
        "type": "t_mapping(t_address,t_uint256)"
      },
      {
        "astId": 51,
        "contract": "contracts/SistemaPrestamos.sol:SistemaPrestamos",
        "label": "IDs",
        "offset": 0,
        "slot": "4",
        "type": "t_array(t_uint256)dyn_storage"
      },
      {
        "astId": 53,
        "contract": "contracts/SistemaPrestamos.sol:SistemaPrestamos",
        "label": "proximoId",
        "offset": 0,
        "slot": "5",
        "type": "t_uint256"
      }
    ],
    "types": {
      "t_address": {
        "encoding": "inplace",
        "label": "address",
        "numberOfBytes": "20"
      },
      "t_array(t_string_storage)dyn_storage": {
        "base": "t_string_storage",
        "encoding": "dynamic_array",
        "label": "string[]",
        "numberOfBytes": "32"
      },
      "t_array(t_uint256)dyn_storage": {
        "base": "t_uint256",
        "encoding": "dynamic_array",
        "label": "uint256[]",
        "numberOfBytes": "32"
      },
      "t_bool": {
        "encoding": "inplace",
        "label": "bool",
        "numberOfBytes": "1"
      },
      "t_mapping(t_address,t_uint256)": {
        "encoding": "mapping",
        "key": "t_address",
        "label": "mapping(address => uint256)",
        "numberOfBytes": "32",
        "value": "t_uint256"
      },
      "t_mapping(t_string_memory_ptr,t_struct(Equipo)10_storage)": {
        "encoding": "mapping",
        "key": "t_string_memory_ptr",
        "label": "mapping(string => struct SistemaPrestamos.Equipo)",
        "numberOfBytes": "32",
        "value": "t_struct(Equipo)10_storage"
      },
      "t_mapping(t_uint256,t_struct(Prestamo)31_storage)": {
        "encoding": "mapping",
        "key": "t_uint256",
        "label": "mapping(uint256 => struct SistemaPrestamos.Prestamo)",
        "numberOfBytes": "32",
        "value": "t_struct(Prestamo)31_storage"
      },
      "t_string_memory_ptr": {
        "encoding": "bytes",
        "label": "string",
        "numberOfBytes": "32"
      },
      "t_string_storage": {
        "encoding": "bytes",
        "label": "string",
        "numberOfBytes": "32"
      },
      "t_struct(Equipo)10_storage": {
        "encoding": "inplace",
        "label": "struct SistemaPrestamos.Equipo",
        "members": [
          {
            "astId": 3,
            "contract": "contracts/SistemaPrestamos.sol:SistemaPrestamos",
            "label": "nombre",
            "offset": 0,
            "slot": "0",
            "type": "t_string_storage"
          },
          {
            "astId": 5,
            "contract": "contracts/SistemaPrestamos.sol:SistemaPrestamos",
            "label": "cantidadTotal",
            "offset": 0,
            "slot": "1",
            "type": "t_uint256"
          },
          {
            "astId": 7,
            "contract": "contracts/SistemaPrestamos.sol:SistemaPrestamos",
            "label": "cantidadPrestada",
            "offset": 0,
            "slot": "2",
            "type": "t_uint256"
          },
          {
            "astId": 9,
            "contract": "contracts/SistemaPrestamos.sol:SistemaPrestamos",
            "label": "existe",
            "offset": 0,
            "slot": "3",
            "type": "t_bool"
          }
        ],
        "numberOfBytes": "128"
      },
      "t_struct(Prestamo)31_storage": {
        "encoding": "inplace",
        "label": "struct SistemaPrestamos.Prestamo",
        "members": [
          {
            "astId": 12,
            "contract": "contracts/SistemaPrestamos.sol:SistemaPrestamos",
            "label": "id",
            "offset": 0,
            "slot": "0",
            "type": "t_uint256"
          },
          {
            "astId": 14,
            "contract": "contracts/SistemaPrestamos.sol:SistemaPrestamos",
            "label": "solicitante",
            "offset": 0,
            "slot": "1",
            "type": "t_address"
          },
          {
            "astId": 16,
            "contract": "contracts/SistemaPrestamos.sol:SistemaPrestamos",
            "label": "nombre",
            "offset": 0,
            "slot": "2",
            "type": "t_string_storage"
          },
          {
            "astId": 18,
            "contract": "contracts/SistemaPrestamos.sol:SistemaPrestamos",
            "label": "apellido",
            "offset": 0,
            "slot": "3",
            "type": "t_string_storage"
          },
          {
            "astId": 20,
            "contract": "contracts/SistemaPrestamos.sol:SistemaPrestamos",
            "label": "cedula",
            "offset": 0,
            "slot": "4",
            "type": "t_string_storage"
          },
          {
            "astId": 22,
            "contract": "contracts/SistemaPrestamos.sol:SistemaPrestamos",
            "label": "telefono",
            "offset": 0,
            "slot": "5",
            "type": "t_string_storage"
          },
          {
            "astId": 24,
            "contract": "contracts/SistemaPrestamos.sol:SistemaPrestamos",
            "label": "trayecto",
            "offset": 0,
            "slot": "6",
            "type": "t_string_storage"
          },
          {
            "astId": 26,
            "contract": "contracts/SistemaPrestamos.sol:SistemaPrestamos",
            "label": "tipoEquipo",
            "offset": 0,
            "slot": "7",
            "type": "t_string_storage"
          },
          {
            "astId": 28,
            "contract": "contracts/SistemaPrestamos.sol:SistemaPrestamos",
            "label": "fechaAgendada",
            "offset": 0,
            "slot": "8",
            "type": "t_uint256"
          },
          {
            "astId": 30,
            "contract": "contracts/SistemaPrestamos.sol:SistemaPrestamos",
            "label": "activo",
            "offset": 0,
            "slot": "9",
            "type": "t_bool"
          }
        ],
        "numberOfBytes": "320"
      },
      "t_uint256": {
        "encoding": "inplace",
        "label": "uint256",
        "numberOfBytes": "32"
      }
    }
  }
}